{
  "abi": [
    {
      "inputs": [],
      "name": "PriceTooOld",
      "type": "error"
    },
    {
      "inputs": [
        {
          "internalType": "string",
          "name": "key",
          "type": "string"
        },
        {
          "internalType": "uint128",
          "name": "maxTimePassed",
          "type": "uint128"
        }
      ],
      "name": "exampleCheckPrice",
      "outputs": [
        {
          "internalType": "uint128",
          "name": "price",
          "type": "uint128"
        }
      ],
      "stateMutability": "nonpayable",
      "type": "function"
    },
    {
      "inputs": [
        {
          "internalType": "string",
          "name": "key",
          "type": "string"
        }
      ],
      "name": "exampleGetPrice",
      "outputs": [
        {
          "internalType": "uint128",
          "name": "",
          "type": "uint128"
        }
      ],
      "stateMutability": "nonpayable",
      "type": "function"
    }
  ],
  "bytecode": {
    "object": "0x60a060405273a93546947f3015c986695750b8bbea8e26d6585660805234801561002857600080fd5b50608051610536610049600039600081816085015260dc01526105366000f3fe608060405234801561001057600080fd5b50600436106100365760003560e01c80632e343f881461003b578063cff3bff01461006a575b600080fd5b61004e610049366004610394565b61007d565b6040516001600160801b03909116815260200160405180910390f35b61004e6100783660046103e6565b6100d5565b6000806100ab7f00000000000000000000000000000000000000000000000000000000000000008585610107565b9092509050806100ce5760405163c9cf1f8b60e01b815260040160405180910390fd5b5092915050565b60006101017f0000000000000000000000000000000000000000000000000000000000000000836101f6565b92915050565b6000806000856001600160a01b031663960384a0866040518263ffffffff1660e01b81526004016101389190610470565b60408051808303816000875af1158015610156573d6000803e3d6000fd5b505050506040513d601f19601f8201168201806040525081019061017a919061048a565b90935090506001600160801b0380851690610197908316426104b9565b106101a35760006101a6565b60015b91506101ed6040518060400160405280600f81526020016e06f7261636c6554696d657374616d7608c1b815250826001600160801b0316426101e891906104b9565b61026f565b50935093915050565b6040516304b01c2560e51b81526000906001600160a01b0384169063960384a090610225908590600401610470565b60408051808303816000875af1158015610243573d6000803e3d6000fd5b505050506040513d601f19601f82011682018060405250810190610267919061048a565b509392505050565b6102b482826040516024016102859291906104de565b60408051601f198184030181529190526020810180516001600160e01b0316632d839cb360e21b1790526102b8565b5050565b80516a636f6e736f6c652e6c6f67602083016000808483855afa5050505050565b634e487b7160e01b600052604160045260246000fd5b600082601f83011261030057600080fd5b813567ffffffffffffffff8082111561031b5761031b6102d9565b604051601f8301601f19908116603f01168101908282118183101715610343576103436102d9565b8160405283815286602085880101111561035c57600080fd5b836020870160208301376000602085830101528094505050505092915050565b6001600160801b038116811461039157600080fd5b50565b600080604083850312156103a757600080fd5b823567ffffffffffffffff8111156103be57600080fd5b6103ca858286016102ef565b92505060208301356103db8161037c565b809150509250929050565b6000602082840312156103f857600080fd5b813567ffffffffffffffff81111561040f57600080fd5b61041b848285016102ef565b949350505050565b6000815180845260005b818110156104495760208185018101518683018201520161042d565b8181111561045b576000602083870101525b50601f01601f19169290920160200192915050565b6020815260006104836020830184610423565b9392505050565b6000806040838503121561049d57600080fd5b82516104a88161037c565b60208401519092506103db8161037c565b6000828210156104d957634e487b7160e01b600052601160045260246000fd5b500390565b6040815260006104f16040830185610423565b9050826020830152939250505056fea2646970667358221220d140c07c0197770a6309032177125a568095dc9c82b34f01ece422d64054bf9b64736f6c634300080f0033",
    "linkReferences": {}
  },
  "methodIdentifiers": {
    "exampleCheckPrice(string,uint128)": "2e343f88",
    "exampleGetPrice(string)": "cff3bff0"
  },
  "id": 6
}