{
  "abi": [
    {
      "inputs": [
        {
          "internalType": "string",
          "name": "key",
          "type": "string"
        },
        {
          "internalType": "uint256",
          "name": "timeConstraint",
          "type": "uint256"
        }
      ],
      "name": "exampleCheckPrice",
      "outputs": [
        {
          "internalType": "uint256",
          "name": "",
          "type": "uint256"
        },
        {
          "internalType": "bool",
          "name": "",
          "type": "bool"
        }
      ],
      "stateMutability": "nonpayable",
      "type": "function"
    },
    {
      "inputs": [
        {
          "internalType": "string",
          "name": "key",
          "type": "string"
        }
      ],
      "name": "exampleGetPrice",
      "outputs": [
        {
          "internalType": "uint256",
          "name": "",
          "type": "uint256"
        }
      ],
      "stateMutability": "nonpayable",
      "type": "function"
    }
  ],
  "bytecode": {
    "object": "0x60a0604052731e27d6b118e2e618e1b902e85428a27f49edd5ec60805234801561002857600080fd5b506080516104b2610049600039600081816091015260c901526104b26000f3fe608060405234801561001057600080fd5b50600436106100365760003560e01c80634b01aee31461003b578063cff3bff014610068575b600080fd5b61004e6100493660046102de565b610089565b604080519283529015156020830152015b60405180910390f35b61007b610076366004610323565b6100c2565b60405190815260200161005f565b6000806100b77f000000000000000000000000000000000000000000000000000000000000000085856100f4565b915091509250929050565b60006100ee7f000000000000000000000000000000000000000000000000000000000000000083610199565b92915050565b6000806000856001600160a01b031663e1221400866040518263ffffffff1660e01b81526004016101259190610390565b6000604051808303816000875af1158015610144573d6000803e3d6000fd5b505050506040513d6000823e601f3d908101601f1916820160405261016c91908101906103c3565b50919450915081905061017f8542610457565b1161018b57600061018e565b60015b915050935093915050565b6040516238488560ea1b81526000906001600160a01b0384169063e1221400906101c7908590600401610390565b6000604051808303816000875af11580156101e6573d6000803e3d6000fd5b505050506040513d6000823e601f3d908101601f1916820160405261020e91908101906103c3565b509195945050505050565b634e487b7160e01b600052604160045260246000fd5b604051601f8201601f1916810167ffffffffffffffff8111828210171561025857610258610219565b604052919050565b600067ffffffffffffffff82111561027a5761027a610219565b50601f01601f191660200190565b600082601f83011261029957600080fd5b81356102ac6102a782610260565b61022f565b8181528460208386010111156102c157600080fd5b816020850160208301376000918101602001919091529392505050565b600080604083850312156102f157600080fd5b823567ffffffffffffffff81111561030857600080fd5b61031485828601610288565b95602094909401359450505050565b60006020828403121561033557600080fd5b813567ffffffffffffffff81111561034c57600080fd5b61035884828501610288565b949350505050565b60005b8381101561037b578181015183820152602001610363565b8381111561038a576000848401525b50505050565b60208152600082518060208401526103af816040850160208701610360565b601f01601f19169190910160400192915050565b600080600080608085870312156103d957600080fd5b845193506020850151925060408501519150606085015167ffffffffffffffff81111561040557600080fd5b8501601f8101871361041657600080fd5b80516104246102a782610260565b81815288602083850101111561043957600080fd5b61044a826020830160208601610360565b9598949750929550505050565b60008282101561047757634e487b7160e01b600052601160045260246000fd5b50039056fea26469706673582212200c2de309d6b109a87c75ef5d6bc3ce3428d6d65e9d5b7e29ac54f79e823b0ed064736f6c634300080f0033",
    "linkReferences": {}
  },
  "methodIdentifiers": {
    "exampleCheckPrice(string,uint256)": "4b01aee3",
    "exampleGetPrice(string)": "cff3bff0"
  },
  "id": 7
}