{
  "abi": [
    {
      "inputs": [],
      "name": "PriceTooOld",
      "type": "error"
    },
    {
      "inputs": [
        {
          "internalType": "string",
          "name": "key",
          "type": "string"
        },
        {
          "internalType": "uint128",
          "name": "maxTimePassed",
          "type": "uint128"
        }
      ],
      "name": "exampleCheckPrice",
      "outputs": [
        {
          "internalType": "uint128",
          "name": "price",
          "type": "uint128"
        }
      ],
      "stateMutability": "nonpayable",
      "type": "function"
    },
    {
      "inputs": [
        {
          "internalType": "string",
          "name": "key",
          "type": "string"
        }
      ],
      "name": "exampleGetPrice",
      "outputs": [
        {
          "internalType": "uint128",
          "name": "",
          "type": "uint128"
        }
      ],
      "stateMutability": "nonpayable",
      "type": "function"
    }
  ],
  "bytecode": {
    "object": "0x60a060405273a93546947f3015c986695750b8bbea8e26d6585660805234801561002857600080fd5b50608051610453610049600039600081816085015260dc01526104536000f3fe608060405234801561001057600080fd5b50600436106100365760003560e01c80632e343f881461003b578063cff3bff01461006a575b600080fd5b61004e6100493660046102e5565b61007d565b6040516001600160801b03909116815260200160405180910390f35b61004e610078366004610337565b6100d5565b6000806100ab7f00000000000000000000000000000000000000000000000000000000000000008585610107565b9092509050806100ce5760405163c9cf1f8b60e01b815260040160405180910390fd5b5092915050565b60006101017f0000000000000000000000000000000000000000000000000000000000000000836101b1565b92915050565b6000806000856001600160a01b031663960384a0866040518263ffffffff1660e01b81526004016101389190610374565b60408051808303816000875af1158015610156573d6000803e3d6000fd5b505050506040513d601f19601f8201168201806040525081019061017a91906103c9565b90935090506001600160801b0380851690610197908316426103f8565b106101a35760006101a6565b60015b915050935093915050565b6040516304b01c2560e51b81526000906001600160a01b0384169063960384a0906101e0908590600401610374565b60408051808303816000875af11580156101fe573d6000803e3d6000fd5b505050506040513d601f19601f8201168201806040525081019061022291906103c9565b509392505050565b634e487b7160e01b600052604160045260246000fd5b600082601f83011261025157600080fd5b813567ffffffffffffffff8082111561026c5761026c61022a565b604051601f8301601f19908116603f011681019082821181831017156102945761029461022a565b816040528381528660208588010111156102ad57600080fd5b836020870160208301376000602085830101528094505050505092915050565b6001600160801b03811681146102e257600080fd5b50565b600080604083850312156102f857600080fd5b823567ffffffffffffffff81111561030f57600080fd5b61031b85828601610240565b925050602083013561032c816102cd565b809150509250929050565b60006020828403121561034957600080fd5b813567ffffffffffffffff81111561036057600080fd5b61036c84828501610240565b949350505050565b600060208083528351808285015260005b818110156103a157858101830151858201604001528201610385565b818111156103b3576000604083870101525b50601f01601f1916929092016040019392505050565b600080604083850312156103dc57600080fd5b82516103e7816102cd565b602084015190925061032c816102cd565b60008282101561041857634e487b7160e01b600052601160045260246000fd5b50039056fea2646970667358221220952c27b9a30da4650f82f4d3dfe1193adb93d4765911de96a2dedfbbe745127164736f6c634300080f0033",
    "linkReferences": {}
  },
  "methodIdentifiers": {
    "exampleCheckPrice(string,uint128)": "2e343f88",
    "exampleGetPrice(string)": "cff3bff0"
  },
  "id": 6
}